{
  "contractName": "EtherReceiver",
  "abi": [
    {
      "payable": true,
      "stateMutability": "payable",
      "type": "fallback"
    },
    {
      "constant": true,
      "inputs": [],
      "name": "getBalance",
      "outputs": [
        {
          "internalType": "uint256",
          "name": "",
          "type": "uint256"
        }
      ],
      "payable": false,
      "stateMutability": "view",
      "type": "function"
    },
    {
      "constant": true,
      "inputs": [],
      "name": "greeting",
      "outputs": [
        {
          "internalType": "string",
          "name": "",
          "type": "string"
        }
      ],
      "payable": false,
      "stateMutability": "pure",
      "type": "function"
    }
  ],
  "bytecode": "0x608060405234801561001057600080fd5b50610160806100206000396000f3fe6080604052600436106100295760003560e01c806312065fe01461002b578063ef690cc014610056575b005b34801561003757600080fd5b506100406100e6565b6040518082815260200191505060405180910390f35b34801561006257600080fd5b5061006b6100ee565b6040518080602001828103825283818151815260200191508051906020019080838360005b838110156100ab578082015181840152602081019050610090565b50505050905090810190601f1680156100d85780820380516001836020036101000a031916815260200191505b509250505060405180910390f35b600047905090565b60606040518060400160405280601e81526020017f48656c6c6f2c204920616d20616e20657468657220726563656976657221000081525090509056fea265627a7a723158204cf255a098e1ec9a0a358ea78c97e081f093b6ea155d3b06aad374c8264341ab64736f6c63430005100032",
  "source": "// SPDX-License-Identifier: MIT\n\npragma solidity 0.5.16;\n\ncontract EtherReceiver {\n  function () payable external {}\n\n  function getBalance() public view returns (uint) {\n    return address(this).balance;\n  }\n\n  function greeting() public pure returns (string memory) {\n    return \"Hello, I am an ether receiver!\";\n  }\n}\n",
  "sourcePath": "/home/standard/projects/solidity-receive-ether/contracts/EtherReceiver.sol",
  "compiler": {
    "name": "solc",
    "version": "0.5.16+commit.9c3226ce.Emscripten.clang"
  },
  "schemaVersion": "3.3.1",
  "updatedAt": "2020-10-25T14:09:13.986Z",
  "networkType": "ethereum",
  "devdoc": {
    "methods": {}
  },
  "userdoc": {
    "methods": {}
  }
}